{
  "contractName": "messageStorage",
  "abi": [
    {
      "inputs": [],
      "payable": false,
      "stateMutability": "nonpayable",
      "type": "constructor"
    },
    {
      "anonymous": false,
      "inputs": [
        {
          "indexed": false,
          "internalType": "address",
          "name": "messageID",
          "type": "address"
        }
      ],
      "name": "newMessage",
      "type": "event"
    },
    {
      "constant": true,
      "inputs": [
        {
          "internalType": "address",
          "name": "",
          "type": "address"
        }
      ],
      "name": "messagesList",
      "outputs": [
        {
          "internalType": "bytes32",
          "name": "senderId",
          "type": "bytes32"
        },
        {
          "internalType": "bytes32",
          "name": "receiverId",
          "type": "bytes32"
        },
        {
          "internalType": "bytes32",
          "name": "senderRole",
          "type": "bytes32"
        },
        {
          "internalType": "bytes32",
          "name": "receiverRole",
          "type": "bytes32"
        },
        {
          "internalType": "bytes32",
          "name": "msgType",
          "type": "bytes32"
        },
        {
          "internalType": "address",
          "name": "messageId",
          "type": "address"
        },
        {
          "internalType": "bytes32",
          "name": "propertyX",
          "type": "bytes32"
        },
        {
          "internalType": "bytes32",
          "name": "propertyY",
          "type": "bytes32"
        },
        {
          "internalType": "bytes32",
          "name": "listPrice",
          "type": "bytes32"
        }
      ],
      "payable": false,
      "stateMutability": "view",
      "type": "function"
    },
    {
      "constant": false,
      "inputs": [
        {
          "internalType": "bytes32",
          "name": "senderId",
          "type": "bytes32"
        },
        {
          "internalType": "bytes32",
          "name": "receiverId",
          "type": "bytes32"
        },
        {
          "internalType": "bytes32",
          "name": "senderRole",
          "type": "bytes32"
        },
        {
          "internalType": "bytes32",
          "name": "receiverRole",
          "type": "bytes32"
        },
        {
          "internalType": "bytes32",
          "name": "msgType",
          "type": "bytes32"
        },
        {
          "internalType": "address",
          "name": "messageId",
          "type": "address"
        },
        {
          "internalType": "bytes32",
          "name": "propertyX",
          "type": "bytes32"
        },
        {
          "internalType": "bytes32",
          "name": "propertyY",
          "type": "bytes32"
        },
        {
          "internalType": "bytes32",
          "name": "listPrice",
          "type": "bytes32"
        }
      ],
      "name": "createNewMessage",
      "outputs": [],
      "payable": false,
      "stateMutability": "nonpayable",
      "type": "function"
    },
    {
      "constant": false,
      "inputs": [
        {
          "internalType": "address",
          "name": "msgId",
          "type": "address"
        }
      ],
      "name": "getMessage",
      "outputs": [
        {
          "internalType": "bytes32",
          "name": "senderId",
          "type": "bytes32"
        },
        {
          "internalType": "bytes32",
          "name": "receiverId",
          "type": "bytes32"
        },
        {
          "internalType": "bytes32",
          "name": "senderRole",
          "type": "bytes32"
        },
        {
          "internalType": "bytes32",
          "name": "receiverRole",
          "type": "bytes32"
        },
        {
          "internalType": "bytes32",
          "name": "msgType",
          "type": "bytes32"
        },
        {
          "internalType": "address",
          "name": "messageId",
          "type": "address"
        },
        {
          "internalType": "bytes32",
          "name": "propertyX",
          "type": "bytes32"
        },
        {
          "internalType": "bytes32",
          "name": "propertyY",
          "type": "bytes32"
        },
        {
          "internalType": "bytes32",
          "name": "listPrice",
          "type": "bytes32"
        }
      ],
      "payable": false,
      "stateMutability": "nonpayable",
      "type": "function"
    },
    {
      "constant": false,
      "inputs": [
        {
          "internalType": "address",
          "name": "msgId",
          "type": "address"
        }
      ],
      "name": "deleteMessage",
      "outputs": [],
      "payable": false,
      "stateMutability": "nonpayable",
      "type": "function"
    }
  ],
  "bytecode": "0x608060405234801561001057600080fd5b5060007f4648464846000000000000000000000000000000000000000000000000000000905060007f736a736a736a7300000000000000000000000000000000000000000000000000905060007f736e6a736a736a73730000000000000000000000000000000000000000000000905060007f736b736b736b736b730000000000000000000000000000000000000000000000905060007f43667000000000000000000000000000000000000000000000000000000000009050600073e0f5206bbd039e7b0592d8918820024e2a7437b9905060007f646b6b646b640000000000000000000000000000000000000000000000000000905060007f736d73736b730000000000000000000000000000000000000000000000000000905060007f736b73736b000000000000000000000000000000000000000000000000000000905061015a610409565b8981600001818152505088816020018181525050878160400181815250508681606001818152505085816080018181525050848160a0019073ffffffffffffffffffffffffffffffffffffffff16908173ffffffffffffffffffffffffffffffffffffffff1681525050838160c0018181525050828160e00181815250508181610100018181525050806000808773ffffffffffffffffffffffffffffffffffffffff1673ffffffffffffffffffffffffffffffffffffffff168152602001908152602001600020600082015181600001556020820151816001015560408201518160020155606082015181600301556080820151816004015560a08201518160050160006101000a81548173ffffffffffffffffffffffffffffffffffffffff021916908373ffffffffffffffffffffffffffffffffffffffff16021790555060c0820151816006015560e0820151816007015561010082015181600801559050507f6871fd26704fe3c719e7c5f923c2c1fda7e9775383f058af5423fce2f40edca185604051808273ffffffffffffffffffffffffffffffffffffffff1673ffffffffffffffffffffffffffffffffffffffff16815260200191505060405180910390a1806000808773ffffffffffffffffffffffffffffffffffffffff1673ffffffffffffffffffffffffffffffffffffffff168152602001908152602001600020600082015181600001556020820151816001015560408201518160020155606082015181600301556080820151816004015560a08201518160050160006101000a81548173ffffffffffffffffffffffffffffffffffffffff021916908373ffffffffffffffffffffffffffffffffffffffff16021790555060c0820151816006015560e08201518160070155610100820151816008015590505050505050505050505050610483565b6040518061012001604052806000801916815260200160008019168152602001600080191681526020016000801916815260200160008019168152602001600073ffffffffffffffffffffffffffffffffffffffff1681526020016000801916815260200160008019168152602001600080191681525090565b61079a806104926000396000f3fe608060405234801561001057600080fd5b506004361061004c5760003560e01c8063150038571461005157806355448fe11461010d578063c88ac187146101c9578063f600bde81461020d575b600080fd5b6100936004803603602081101561006757600080fd5b81019080803573ffffffffffffffffffffffffffffffffffffffff1690602001909291905050506102a2565b604051808a81526020018981526020018881526020018781526020018681526020018573ffffffffffffffffffffffffffffffffffffffff1673ffffffffffffffffffffffffffffffffffffffff168152602001848152602001838152602001828152602001995050505050505050505060405180910390f35b61014f6004803603602081101561012357600080fd5b81019080803573ffffffffffffffffffffffffffffffffffffffff169060200190929190505050610310565b604051808a81526020018981526020018881526020018781526020018681526020018573ffffffffffffffffffffffffffffffffffffffff1673ffffffffffffffffffffffffffffffffffffffff168152602001848152602001838152602001828152602001995050505050505050505060405180910390f35b61020b600480360360208110156101df57600080fd5b81019080803573ffffffffffffffffffffffffffffffffffffffff169060200190929190505050610466565b005b6102a0600480360361012081101561022457600080fd5b810190808035906020019092919080359060200190929190803590602001909291908035906020019092919080359060200190929190803573ffffffffffffffffffffffffffffffffffffffff169060200190929190803590602001909291908035906020019092919080359060200190929190505050610511565b005b60006020528060005260406000206000915090508060000154908060010154908060020154908060030154908060040154908060050160009054906101000a900473ffffffffffffffffffffffffffffffffffffffff16908060060154908060070154908060080154905089565b60008060008060008060008060006103266106eb565b6000808c73ffffffffffffffffffffffffffffffffffffffff1673ffffffffffffffffffffffffffffffffffffffff1681526020019081526020016000206040518061012001604052908160008201548152602001600182015481526020016002820154815260200160038201548152602001600482015481526020016005820160009054906101000a900473ffffffffffffffffffffffffffffffffffffffff1673ffffffffffffffffffffffffffffffffffffffff1673ffffffffffffffffffffffffffffffffffffffff1681526020016006820154815260200160078201548152602001600882015481525050905080600001519950806020015198508060400151975080606001519650806080015195508060a0015194508060c0015193508060e0015192508061010001519150509193959799909294969850565b6000808273ffffffffffffffffffffffffffffffffffffffff1673ffffffffffffffffffffffffffffffffffffffff16815260200190815260200160002060008082016000905560018201600090556002820160009055600382016000905560048201600090556005820160006101000a81549073ffffffffffffffffffffffffffffffffffffffff0219169055600682016000905560078201600090556008820160009055505050565b6105196106eb565b8981600001818152505088816020018181525050878160400181815250508681606001818152505085816080018181525050848160a0019073ffffffffffffffffffffffffffffffffffffffff16908173ffffffffffffffffffffffffffffffffffffffff1681525050838160c0018181525050828160e00181815250508181610100018181525050806000808773ffffffffffffffffffffffffffffffffffffffff1673ffffffffffffffffffffffffffffffffffffffff168152602001908152602001600020600082015181600001556020820151816001015560408201518160020155606082015181600301556080820151816004015560a08201518160050160006101000a81548173ffffffffffffffffffffffffffffffffffffffff021916908373ffffffffffffffffffffffffffffffffffffffff16021790555060c0820151816006015560e0820151816007015561010082015181600801559050507f6871fd26704fe3c719e7c5f923c2c1fda7e9775383f058af5423fce2f40edca185604051808273ffffffffffffffffffffffffffffffffffffffff1673ffffffffffffffffffffffffffffffffffffffff16815260200191505060405180910390a150505050505050505050565b6040518061012001604052806000801916815260200160008019168152602001600080191681526020016000801916815260200160008019168152602001600073ffffffffffffffffffffffffffffffffffffffff168152602001600080191681526020016000801916815260200160008019168152509056fea265627a7a72315820bfb3307491a1a2756030c79f82ef9476a435941b4da11c2ace67c69748c9ecd764736f6c63430005100032",
  "source": "// SPDX-License-Identifier: MIT\r\npragma solidity >=0.4.22 <0.8.0;\r\n\r\ncontract messageStorage {\r\n    mapping(address => message) public messagesList;\r\n\tstruct message\r\n    {\r\n\t\tbytes32 senderId;\r\n\t\tbytes32 receiverId;\r\n\t\tbytes32 senderRole;\r\n\t\tbytes32 receiverRole;\r\n\t\tbytes32 msgType;\r\n\t\taddress messageId;\r\n\t\tbytes32 propertyX;\r\n\t\tbytes32 propertyY;\r\n\t\tbytes32 listPrice;\r\n    }\r\n\t\r\n\t constructor() public {\r\n\t\tbytes32 senderId = \"FHFHF\";\r\n\t\tbytes32 receiverId = \"sjsjsjs\";\r\n\t\tbytes32 senderRole = \"snjsjsjss\";\r\n\t\tbytes32 receiverRole = \"sksksksks\";\r\n\t\tbytes32 msgType = \"Cfp\";\r\n\t\taddress  messageId = 0xE0f5206BBD039e7b0592d8918820024e2a7437b9;\r\n\t\tbytes32 propertyX = \"dkkdkd\";\r\n\t\tbytes32 propertyY = \"smssks\";\r\n\t\tbytes32 listPrice = \"skssk\";\r\n\t\t\r\n\t\tmessage memory  mg;\r\n\t\tmg.senderId = senderId;\r\n\t\tmg.receiverId = receiverId;\r\n\t\tmg.senderRole = senderRole;\r\n\t\tmg.receiverRole = receiverRole;\r\n\t\tmg.msgType = msgType;\r\n\t\tmg.messageId = messageId;\r\n\t\tmg.propertyX = propertyX;\r\n\t\tmg.propertyY = propertyY;\r\n\t\tmg.listPrice = listPrice;\r\n\t\tmessagesList[messageId] = mg;\r\n\t\temit newMessage(messageId);\r\n\t\t\r\n\t\tmessagesList[messageId] = mg;\r\n\t}\r\n\t\r\n\tevent newMessage(address messageID);\r\n\r\n\tfunction createNewMessage(bytes32 senderId,\r\n\t\t\t\t\t\t\t\tbytes32 receiverId,\r\n\t\t\t\t\t\t\t\tbytes32 senderRole,\r\n\t\t\t\t\t\t\t\tbytes32 receiverRole,\r\n\t\t\t\t\t\t\t\tbytes32 msgType,\r\n\t\t\t\t\t\t\t\taddress messageId,\r\n\t\t\t\t\t\t\t\tbytes32 propertyX,\r\n\t\t\t\t\t\t\t\tbytes32 propertyY,\r\n\t\t\t\t\t\t\t\tbytes32 listPrice) public \r\n\t{\r\n\t\tmessage memory  mg;\r\n\t\tmg.senderId = senderId;\r\n\t\tmg.receiverId = receiverId;\r\n\t\tmg.senderRole = senderRole;\r\n\t\tmg.receiverRole = receiverRole;\r\n\t\tmg.msgType = msgType;\r\n\t\tmg.messageId = messageId;\r\n\t\tmg.propertyX = propertyX;\r\n\t\tmg.propertyY = propertyY;\r\n\t\tmg.listPrice = listPrice;\r\n\t\tmessagesList[messageId] = mg;\r\n\t\temit newMessage(messageId);\r\n\t}\r\n\t\r\n\tfunction getMessage(address msgId) public  returns (bytes32 senderId,\r\n\t\t\t\t\t\t\t\tbytes32 receiverId,\r\n\t\t\t\t\t\t\t\tbytes32 senderRole,\r\n\t\t\t\t\t\t\t\tbytes32 receiverRole,\r\n\t\t\t\t\t\t\t\tbytes32 msgType,\r\n\t\t\t\t\t\t\t\taddress messageId,\r\n\t\t\t\t\t\t\t\tbytes32 propertyX,\r\n\t\t\t\t\t\t\t\tbytes32 propertyY,\r\n\t\t\t\t\t\t\t\tbytes32 listPrice)\r\n\t{\r\n\t\tmessage memory  mg;\r\n\t\tmg = messagesList[msgId];\r\n\t\tsenderId = mg.senderId ;\r\n\t\treceiverId = mg.receiverId;\r\n\t\tsenderRole = mg.senderRole;\r\n\t\treceiverRole = mg.receiverRole;\r\n\t\tmsgType = mg.msgType;\r\n\t\tmessageId = mg.messageId;\r\n\t\tpropertyX = mg.propertyX;\r\n\t\tpropertyY = mg.propertyY;\r\n\t\tlistPrice = mg.listPrice;\r\n\t\t\r\n\t}\r\n\tfunction deleteMessage(address msgId) public \r\n\t{\r\n\t\tdelete messagesList[msgId];\r\n\t}\r\n}\r\n",
  "sourcePath": "C:/Test/Truffletest/solEvent/contracts/messageStorage.sol",
  "compiler": {
    "name": "solc",
    "version": "0.5.16+commit.9c3226ce.Emscripten.clang"
  },
  "schemaVersion": "3.3.1",
  "updatedAt": "2020-12-06T21:50:52.006Z",
  "networkType": "ethereum",
  "devdoc": {
    "methods": {}
  },
  "userdoc": {
    "methods": {}
  }
}